:1000000062C023C27BC07AC079C078C077C076C096
:1000100075C074C073C072C071C070C06FC06EC054
:100020006DC00403090434036400710073006F00A1
:10003000660074002E0062006C006F0067007300A1
:1000400070006F007400400067006D00610069007F
:100050006C002E0063006F006D00180353006900F0
:100060006E0061006C0069007A00610064006F003E
:1000700072000A033000300030003100120110011C
:1000800000000008C016DF0500010102030109029B
:100090002200010100803209040000010300000079
:1000A00009210101000122160007058103080064EF
:1000B0000600FF0901A101150026FF007508950340
:1000C0000900B20201C011241FBECFE5D1E0DEBF9E
:1000D000CDBF10E0A0E6B0E0ECE7F8E002C005908C
:1000E0000D92A236B107D9F710E0A2E6B0E001C048
:1000F0001D92A03AB107E1F788D3BEC381CF85B77F
:10010000826085BF8BB780648BBF8BE48093700067
:100110008AE580936F0008951F93DC01162F80916C
:100120006F0084FF07C08091700098E88927809352
:10013000700003C08AE580936F00912FE1E7F0E043
:100140008D91819391501916DCF381E790E0612F36
:1001500065D11C5F10936F001F9108951F93CF937B
:10016000DF9360918000635067FDCCC080917D007B
:10017000CCE0D0E0C81BD109CC57DF4F80917C0088
:100180008D3209F0ADC0683009F0BAC083EC8093BD
:1001900064008AE580936000109263008881807615
:1001A00039F0CE01C7D2282F8F3F09F488C08EC006
:1001B0009A8110926D008981882321F410926E003B
:1001C00022E076C0853019F49093810070C08630AB
:1001D00009F059C08B81813041F48CE790E0909315
:1001E0007F0080937E0022E14AC0823041F48EE895
:1001F00090E090937F0080937E0022E240C08330A5
:1002000049F58A81882341F482E290E090937F004F
:1002100080937E0024E033C0813041F486E290E098
:1002200090937F0080937E0024E329C0823041F4C4
:100230008AE590E090937F0080937E0028E11FC0C4
:100240008330E1F482E790E090937F0080937E001A
:100250002AE015C0813241F480EA90E090937F005B
:1002600080937E0029E00BC0823241F480EB90E065
:1002700090937F0080937E0026E101C020E080E41F
:100280008093630023C0883021F421E083E890E06C
:1002900011C0893019F49093830009C08A3011F499
:1002A00021E006C08B3019F48BE48093700020E0CD
:1002B0008DE690E090937F0080937E0007C0888158
:1002C00087FD2E8180E88093630006C08F8188239C
:1002D00019F48E81821708F0822F8093610010C07C
:1002E0008091630087FF0CC0CE010CD28F3F21F4B8
:1002F0008EE18093600004C0882311F010926100A9
:10030000109280008091600084FF58C0809161004D
:100310008F3F09F453C0182F893008F018E0811B73
:10032000809361008091640098E88927809364003D
:10033000112391F18091630087FF08C085E690E06A
:10034000612FC9D1182F893098F526C020917E00E1
:1003500030917F0086FF0DC0A5E6B0E080E090E020
:10036000F901E80FF91FE491ED9301961817C1F711
:1003700008C0912FD901E5E6F0E08D91819391506D
:10038000E1F71150812F90E01F5F0196820F931FBC
:1003900090937F0080937E0085E690E0612F3ED0B1
:1003A000612F6C5F6C3041F08FEF8093610004C06F
:1003B0008FEF809361006EE16093600094E189B3F8
:1003C000837031F49150D9F71092810010927B0024
:1003D00010E0992309F411E080916200811729F05F
:1003E000112309F4C2D110936200DF91CF911F91C4
:1003F0000895A82FB92F80E090E041E050EA609581
:1004000030E009C02D9182279795879510F08427B9
:100410009527305EC8F36F5FA8F30895EADF8D93E8
:100420009D930895A6E088279927AA9569F00197DA
:10043000E1F3C999FCCFC99BFECF81E09927A9B30D
:10044000019611F0A370D9F70895CF93CFB7CF934A
:10045000C395C99BE9F7C99B09C0C99B07C0C99B44
:1004600005C0C99B03C0C99B01C0A3C0DF93C09155
:100470007D00DD27CC57DF4FC99B02C0DF91EBCF5A
:100480002F930F931F9309B32FEF01FB20F94F9385
:100490003F9319B34FEF012701FB21F93BE031C036
:1004A0004E7F012F19B3216028C0102F4D7F22608D
:1004B000000009B329C04B7F2460012F000019B34D
:1004C0002BC019B3477F28602AC04F7E09B3206133
:1004D0002CC04F7D19B320622FC04F7B09B320641D
:1004E00032C0422709B349934FEF0000102711FB98
:1004F00020F919B31370C9F1297F91F2012701FB8B
:1005000021F909B3237F89F2315058F1102711FBEB
:1005100022F919B3277E79F2012701FB23F92F7CF9
:1005200081F209B3102711FB24F92F7971F200C071
:1005300019B3012701FB25F92F7359F200C009B344
:10054000102711FB26F9223040F200C019B3012711
:1005500001FB27F9243028F64F77206819B30000F3
:10056000F9CF10E41ABF002719C03B503195C31BC7
:10057000D04010E41ABF0881033CF9F00B34E9F0D5
:1005800020917B001981110F1213EDCF4A81441F76
:10059000093641F10D3211F0013E29F70093820036
:1005A0003F914F911F910F912F91DF91CAB7C6FDD7
:1005B0004FCFCF91CFBFCF911895209182002223AA
:1005C00079F310918000112369F534306AF130938A
:1005D000800020937C0010917D003BE0311B309324
:1005E0007D0022C0009180000130E4F40AE54F70E4
:1005F00049F43091600034FD19C000936000C4E6F6
:10060000D0E018C030916F0034FD10C000936F002F
:10061000C0E7D0E00FC02795A8F45150A9F4220FED
:100620000000F9CF4AE503C042ED01C0432FC4E109
:10063000D0E032E01AB31360D99A1ABB0BB320E4AE
:1006400013E05F93012756E00BBB279520F4515030
:1006500021F4220FF9CF012756E000003B5A0BBBD3
:10066000D0F2279528F4515029F4220F0000F9CF39
:10067000012756E027950BBB20F4515021F4220F9F
:10068000F9CF012756E0299133230BBB21F60C7FCC
:1006900010918100110FC651D0400BBB11F0109387
:1006A0007B0010E41ABF02601AB31C7F402F4C7FFE
:1006B0005F9100C000C00BBB1ABB4BBB71CF8091D8
:1006C0009A00813039F49BB380919C008C73937CA9
:1006D000892B8BBB0895582F282F392FD9010CC097
:1006E000E0919D00F0E0E656FF4F80818D93809170
:1006F0009D008F5F80939D008A2F851B861780F356
:10070000862F0895DC0112C080919D00E82FF0E053
:10071000E656FF4F9C9190838F5F80939D006150C0
:10072000833018F0CCDF81E008951196662361F7DD
:1007300080E00895FC01808180768032A1F481817F
:10074000813059F410929D0080939A0089B380788B
:1007500080939B0010929C0004C0893021F4109279
:100760009D008FEF089580E00895DF92EF92FF9251
:100770000F931F93CF93DF93F89400E080E8D82E77
:10078000EE24FF241D2D100F11BF4CDEEC0186E07E
:10079000C13BD8070CF0102FD6940894E11CF11C33
:1007A00088E0E816F10411F0012FECCF115011BFD1
:1007B0001F5FE12EFF240894E11CF11C13C032DE00
:1007C0009C01215B364037FF03C0309521953F4F98
:1007D0002C173D0714F09E0101C011B781B78F5F40
:1007E00081BFE90181B790E0E816F90644F711BF2F
:1007F000789461B780E090E031D0DF91CF911F9184
:100800000F91FF90EF90DF90089580E090E01ED070
:100810008F3F09F081BF8CE38ABBD19A20E048EC7E
:100820005FEACA010197F1F72F5F2431D1F7D19820
:100830002EE088E190E00FB6F894A89581BD0FBE38
:1008400021BD5DDC7894A89589DCFDCFE199FECFD0
:100850001FBA8EBBE09A99278DB30895262FE19990
:10086000FECF1CBA1FBA8EBB2DBB0FB6F894E29A0E
:0C087000E19A0FBE01960895F894FFCFA6
:02087C005AFF21
:00000001FF
